{
  "contractName": "ERC721Enumerable",
  "abi": [
    {
      "inputs": [],
      "stateMutability": "nonpayable",
      "type": "constructor"
    },
    {
      "anonymous": false,
      "inputs": [
        {
          "indexed": true,
          "internalType": "address",
          "name": "_owner",
          "type": "address"
        },
        {
          "indexed": true,
          "internalType": "address",
          "name": "_approved",
          "type": "address"
        },
        {
          "indexed": true,
          "internalType": "uint256",
          "name": "_tokenId",
          "type": "uint256"
        }
      ],
      "name": "Approval",
      "type": "event"
    },
    {
      "anonymous": false,
      "inputs": [
        {
          "indexed": true,
          "internalType": "address",
          "name": "_from",
          "type": "address"
        },
        {
          "indexed": true,
          "internalType": "address",
          "name": "_to",
          "type": "address"
        },
        {
          "indexed": true,
          "internalType": "uint256",
          "name": "_tokenId",
          "type": "uint256"
        }
      ],
      "name": "Transfer",
      "type": "event"
    },
    {
      "inputs": [
        {
          "internalType": "address",
          "name": "_to",
          "type": "address"
        },
        {
          "internalType": "uint256",
          "name": "tokenId",
          "type": "uint256"
        }
      ],
      "name": "approve",
      "outputs": [],
      "stateMutability": "nonpayable",
      "type": "function"
    },
    {
      "inputs": [
        {
          "internalType": "address",
          "name": "_owner",
          "type": "address"
        }
      ],
      "name": "balanceOf",
      "outputs": [
        {
          "internalType": "uint256",
          "name": "",
          "type": "uint256"
        }
      ],
      "stateMutability": "view",
      "type": "function"
    },
    {
      "inputs": [
        {
          "internalType": "uint256",
          "name": "_tokenId",
          "type": "uint256"
        }
      ],
      "name": "getApproved",
      "outputs": [
        {
          "internalType": "address",
          "name": "",
          "type": "address"
        }
      ],
      "stateMutability": "view",
      "type": "function"
    },
    {
      "inputs": [
        {
          "internalType": "uint256",
          "name": "_tokenId",
          "type": "uint256"
        }
      ],
      "name": "ownerOf",
      "outputs": [
        {
          "internalType": "address",
          "name": "",
          "type": "address"
        }
      ],
      "stateMutability": "view",
      "type": "function"
    },
    {
      "inputs": [
        {
          "internalType": "bytes4",
          "name": "interfaceId",
          "type": "bytes4"
        }
      ],
      "name": "supportsInterface",
      "outputs": [
        {
          "internalType": "bool",
          "name": "",
          "type": "bool"
        }
      ],
      "stateMutability": "view",
      "type": "function"
    },
    {
      "inputs": [
        {
          "internalType": "address",
          "name": "_from",
          "type": "address"
        },
        {
          "internalType": "address",
          "name": "_to",
          "type": "address"
        },
        {
          "internalType": "uint256",
          "name": "_tokenId",
          "type": "uint256"
        }
      ],
      "name": "transferFrom",
      "outputs": [],
      "stateMutability": "nonpayable",
      "type": "function"
    },
    {
      "inputs": [],
      "name": "totalSupply",
      "outputs": [
        {
          "internalType": "uint256",
          "name": "",
          "type": "uint256"
        }
      ],
      "stateMutability": "view",
      "type": "function"
    },
    {
      "inputs": [
        {
          "internalType": "uint256",
          "name": "_index",
          "type": "uint256"
        }
      ],
      "name": "tokenByIndex",
      "outputs": [
        {
          "internalType": "uint256",
          "name": "",
          "type": "uint256"
        }
      ],
      "stateMutability": "view",
      "type": "function"
    },
    {
      "inputs": [
        {
          "internalType": "address",
          "name": "_owner",
          "type": "address"
        },
        {
          "internalType": "uint256",
          "name": "_index",
          "type": "uint256"
        }
      ],
      "name": "tokenOfOwnerByIndex",
      "outputs": [
        {
          "internalType": "uint256",
          "name": "",
          "type": "uint256"
        }
      ],
      "stateMutability": "view",
      "type": "function"
    }
  ],
  "bytecode": "0x608060405234801561001057600080fd5b50600060208190527f67be87c3ff9960ca1e9cfac5cab2ff4747269cf9ed20c9b7306235ac35a491c58054600160ff1991821681179092557f6d30883896179969bd6b70060212d0be7efebdf17cadb082d12b1cb1c06508168054821683179055632aa3f47160e01b83527f8cfeb3eabafb43a76dd2043be76e4193cfb32a4cbc23d57b8efc3ef1de04ead580549091169091179055610a309081906100b690396000f3fe608060405234801561001057600080fd5b50600436106100935760003560e01c806323b872dd1161006657806323b872dd1461012c5780632f745c591461013f5780634f6ccce7146101525780636352211e1461016557806370a082311461017857600080fd5b806301ffc9a714610098578063081812fc146100da578063095ea7b31461010557806318160ddd1461011a575b600080fd5b6100c56100a6366004610873565b6001600160e01b03191660009081526020819052604090205460ff1690565b60405190151581526020015b60405180910390f35b6100ed6100e83660046108a4565b61018b565b6040516001600160a01b0390911681526020016100d1565b6101186101133660046108d9565b610210565b005b6004545b6040519081526020016100d1565b61011861013a366004610903565b610332565b61011e61014d3660046108d9565b610355565b61011e6101603660046108a4565b610436565b6100ed6101733660046108a4565b6104a9565b61011e61018636600461093f565b610548565b6000818152600160205260408120546001600160a01b03166101f45760405162461bcd60e51b815260206004820152601b60248201527f4572726f722d20746f6b656e20646f6573206e6f74206578697374000000000060448201526064015b60405180910390fd5b506000908152600360205260409020546001600160a01b031690565b600061021b826104a9565b9050336001600160a01b038216146102755760405162461bcd60e51b815260206004820152601b60248201527f63757272656e742063616c6c6572206973206e6f74206f776e6572000000000060448201526064016101eb565b806001600160a01b0316836001600160a01b0316036102d65760405162461bcd60e51b815260206004820181905260248201527f4572726f722d20417070726f76616c20746f2063757272656e74206f776e657260448201526064016101eb565b60008281526003602052604080822080546001600160a01b0319166001600160a01b0387811691821790925591518593918516917f8c5be1e5ebec7d5bd14f71427d1e84f3dd0314c0f7b2291e5b200ac8c7c3b92591a4505050565b61033c338261058e565b61034557600080fd5b610350838383610646565b505050565b60006001600160a01b0383166103ad5760405162461bcd60e51b815260206004820152601d60248201527f4f776e657220616464726573732063616e206e6f74206265207a65726f00000060448201526064016101eb565b6103b683610548565b82106103f95760405162461bcd60e51b8152602060048201526012602482015271125b99195e081bdd5d081bd988189bdd5b9960721b60448201526064016101eb565b6001600160a01b03831660009081526006602052604090208054839081106104235761042361095a565b9060005260206000200154905092915050565b600061044160045490565b82106104845760405162461bcd60e51b8152602060048201526012602482015271125b99195e081bdd5d081bd988189bdd5b9960721b60448201526064016101eb565b600482815481106104975761049761095a565b90600052602060002001549050919050565b6000818152600160205260408120546001600160a01b031661050d5760405162461bcd60e51b815260206004820152601860248201527f4552433732313a20696e76616c696420746f6b656e204964000000000000000060448201526064016101eb565b6000828152600160205260409020546001600160a01b0316806105425760405162461bcd60e51b81526004016101eb90610970565b92915050565b60006001600160a01b0382166105705760405162461bcd60e51b81526004016101eb90610970565b6001600160a01b038216600090815260026020526040902054610542565b6000818152600160205260408120546001600160a01b03166105f25760405162461bcd60e51b815260206004820152601b60248201527f4572726f722d20746f6b656e20646f6573206e6f74206578697374000000000060448201526064016101eb565b60006105fd836104a9565b9050600061060a8461018b565b9050816001600160a01b0316856001600160a01b0316148061063d5750806001600160a01b0316856001600160a01b0316145b95945050505050565b6001600160a01b0382166106b05760405162461bcd60e51b815260206004820152602b60248201527f4572726f72202d20455243373231205472616e7366657220746f20746865207a60448201526a65726f206164647265737360a81b60648201526084016101eb565b826001600160a01b03166106c3826104a9565b6001600160a01b0316146107365760405162461bcd60e51b815260206004820152603460248201527f547279696e6720746f207472616e73666572206120746f6b656e20746865206160448201527364647265737320646f6573206e6f74206f776e2160601b60648201526084016101eb565b610741600082610210565b6001600160a01b0383166000908152600260205260409020610762906107df565b6001600160a01b0382166000908152600260205260409020610783906107f0565b60008181526001602052604080822080546001600160a01b0319166001600160a01b0386811691821790925591518493918716917fddf252ad1be2c89b69c2b068fc378daa952ba7f163c4a11628f55a4df523b3ef91a4505050565b80546107ec90600161080d565b9055565b600181600001600082825461080591906109cb565b909155505050565b60008282111561085f5760405162461bcd60e51b815260206004820152601e60248201527f536166654d6174683a205375627472616374696f6e206f766572666c6f77000060448201526064016101eb565b600061086b83856109e3565b949350505050565b60006020828403121561088557600080fd5b81356001600160e01b03198116811461089d57600080fd5b9392505050565b6000602082840312156108b657600080fd5b5035919050565b80356001600160a01b03811681146108d457600080fd5b919050565b600080604083850312156108ec57600080fd5b6108f5836108bd565b946020939093013593505050565b60008060006060848603121561091857600080fd5b610921846108bd565b925061092f602085016108bd565b9150604084013590509250925092565b60006020828403121561095157600080fd5b61089d826108bd565b634e487b7160e01b600052603260045260246000fd5b60208082526025908201527f4552433732313a204f776e65722063616e206e6f74206265207a65726f206164604082015264647265737360d81b606082015260800190565b634e487b7160e01b600052601160045260246000fd5b600082198211156109de576109de6109b5565b500190565b6000828210156109f5576109f56109b5565b50039056fea264697066735822122076cfbdb1de0ba52cd7ff33e83687c69e644a3ea0946a3d390faaf52bad0e4a1d64736f6c634300080d0033",
  "immutableReferences": {},
  "source": "// SPDX-License-Identifier: MIT\r\npragma solidity ^0.8.0;\r\n\r\nimport \"./ERC721.sol\";\r\nimport \"./interfaces/IERCEnumerable.sol\";\r\n\r\ncontract ERC721Enumerable is ERC721, IERC721Enumerable {\r\n    uint256[] private _allTokens;\r\n\r\n    // mapping from tokenId to position in _allTokens array\r\n    mapping(uint256 => uint256) private _allTokensIndex;\r\n\r\n    // mapping of owner to list of all owner token ids\r\n    mapping(address => uint256[]) private _ownedTokens;\r\n\r\n    // mapping from token ID to index of the owner tokens list\r\n    mapping(uint256 => uint256) private _ownedTokensIndex;\r\n\r\n    constructor() {\r\n        _registerInterface(\r\n            bytes4(\r\n                keccak256(\"totalSupply(bytes4)\") ^\r\n                    keccak256(\"tokenByIndex(bytes4)\") ^\r\n                    keccak256(\"tokenOfOwnerByIndex(bytes4)\")\r\n            )\r\n        );\r\n    }\r\n\r\n    function totalSupply() public view override returns (uint256) {\r\n        return _allTokens.length;\r\n    }\r\n\r\n    function _mint(address to, uint256 tokenId) internal override(ERC721) {\r\n        super._mint(to, tokenId);\r\n        _addTokensToAllTokenEnumeration(tokenId);\r\n        _addTokensToOwnerEnumeration(to, tokenId);\r\n    }\r\n\r\n    function _addTokensToAllTokenEnumeration(uint256 tokenId) private {\r\n        _allTokensIndex[tokenId] = _allTokens.length;\r\n        _allTokens.push(tokenId);\r\n    }\r\n\r\n    function _addTokensToOwnerEnumeration(address to, uint256 tokenId) private {\r\n        _ownedTokensIndex[tokenId] = _ownedTokens[to].length;\r\n        _ownedTokens[to].push(tokenId);\r\n    }\r\n\r\n    function tokenByIndex(uint256 _index)\r\n        public\r\n        view\r\n        override\r\n        returns (uint256)\r\n    {\r\n        require(_index < totalSupply(), \"Index out of bound\");\r\n        return _allTokens[_index];\r\n    }\r\n\r\n    function tokenOfOwnerByIndex(address _owner, uint256 _index)\r\n        public\r\n        view\r\n        override\r\n        returns (uint256)\r\n    {\r\n        require(_owner != address(0), \"Owner address can not be zero\");\r\n        require(_index < balanceOf(_owner), \"Index out of bound\");\r\n\r\n        return _ownedTokens[_owner][_index];\r\n    }\r\n}\r\n",
  "sourcePath": "C:\\Users\\rames\\OneDrive\\Desktop\\New folder\\NFT\\Project\\nft-marketplace-starter-kit\\src\\contracts\\ERC721Enumerable.sol",
  "compiler": {
    "name": "solc",
    "version": "0.8.13+commit.abaa5c0e.Emscripten.clang"
  },
  "schemaVersion": "3.4.5",
  "updatedAt": "2022-05-05T09:40:09.481Z",
  "devdoc": {
    "kind": "dev",
    "methods": {},
    "version": 1
  },
  "userdoc": {
    "kind": "user",
    "methods": {},
    "version": 1
  }
}