{
  "contractName": "ERC721Metadata",
  "abi": [
    {
      "inputs": [
        {
          "internalType": "string",
          "name": "named",
          "type": "string"
        },
        {
          "internalType": "string",
          "name": "symbolified",
          "type": "string"
        }
      ],
      "stateMutability": "nonpayable",
      "type": "constructor"
    },
    {
      "inputs": [
        {
          "internalType": "bytes4",
          "name": "interfaceId",
          "type": "bytes4"
        }
      ],
      "name": "supportsInterface",
      "outputs": [
        {
          "internalType": "bool",
          "name": "",
          "type": "bool"
        }
      ],
      "stateMutability": "view",
      "type": "function"
    },
    {
      "inputs": [],
      "name": "name",
      "outputs": [
        {
          "internalType": "string",
          "name": "",
          "type": "string"
        }
      ],
      "stateMutability": "view",
      "type": "function"
    },
    {
      "inputs": [],
      "name": "symbol",
      "outputs": [
        {
          "internalType": "string",
          "name": "",
          "type": "string"
        }
      ],
      "stateMutability": "view",
      "type": "function"
    }
  ],
  "bytecode": "0x608060405234801561001057600080fd5b5060405161050a38038061050a83398101604081905261002f91610222565b600060208181527f67be87c3ff9960ca1e9cfac5cab2ff4747269cf9ed20c9b7306235ac35a491c58054600160ff199182168117909255630362db9b60e51b9093527fcac3c0a077c6518b7f68b64ab78f4ed50fa53c3ff307dccfbeed1c7363dd4f438054909316811790925583516100ab92918501906100c7565b5080516100bf9060029060208401906100c7565b5050506102bf565b8280546100d390610285565b90600052602060002090601f0160209004810192826100f5576000855561013b565b82601f1061010e57805160ff191683800117855561013b565b8280016001018555821561013b579182015b8281111561013b578251825591602001919060010190610120565b5061014792915061014b565b5090565b5b80821115610147576000815560010161014c565b634e487b7160e01b600052604160045260246000fd5b600082601f83011261018757600080fd5b81516001600160401b03808211156101a1576101a1610160565b604051601f8301601f19908116603f011681019082821181831017156101c9576101c9610160565b816040528381526020925086838588010111156101e557600080fd5b600091505b8382101561020757858201830151818301840152908201906101ea565b838211156102185760008385830101525b9695505050505050565b6000806040838503121561023557600080fd5b82516001600160401b038082111561024c57600080fd5b61025886838701610176565b9350602085015191508082111561026e57600080fd5b5061027b85828601610176565b9150509250929050565b600181811c9082168061029957607f821691505b6020821081036102b957634e487b7160e01b600052602260045260246000fd5b50919050565b61023c806102ce6000396000f3fe608060405234801561001057600080fd5b50600436106100415760003560e01c806301ffc9a71461004657806306fdde031461008857806395d89b411461009d575b600080fd5b610073610054366004610146565b6001600160e01b03191660009081526020819052604090205460ff1690565b60405190151581526020015b60405180910390f35b6100906100a5565b60405161007f9190610177565b610090610137565b6060600180546100b4906101cc565b80601f01602080910402602001604051908101604052809291908181526020018280546100e0906101cc565b801561012d5780601f106101025761010080835404028352916020019161012d565b820191906000526020600020905b81548152906001019060200180831161011057829003601f168201915b5050505050905090565b6060600280546100b4906101cc565b60006020828403121561015857600080fd5b81356001600160e01b03198116811461017057600080fd5b9392505050565b600060208083528351808285015260005b818110156101a457858101830151858201604001528201610188565b818111156101b6576000604083870101525b50601f01601f1916929092016040019392505050565b600181811c908216806101e057607f821691505b60208210810361020057634e487b7160e01b600052602260045260246000fd5b5091905056fea2646970667358221220704a48db19e89a61124fe074e81f6d87fdf52532152d672bab012ce5d167f70364736f6c634300080d0033",
  "immutableReferences": {},
  "source": "// SPDX-License-Identifier: MIT\r\npragma solidity ^0.8.0;\r\n\r\nimport \"./interfaces/IERC721Metadata.sol\";\r\nimport \"./ERC165.sol\";\r\n\r\ncontract ERC721Metadata is IERC721Metadata, ERC165 {\r\n    string private _name;\r\n    string private _symbol;\r\n\r\n    constructor(string memory named, string memory symbolified) {\r\n        _registerInterface(\r\n            bytes4(keccak256(\"name(bytes4)\") ^ keccak256(\"symbol(bytes4)\"))\r\n        );\r\n        _name = named;\r\n        _symbol = symbolified;\r\n    }\r\n\r\n    function name() external view override returns (string memory) {\r\n        return _name;\r\n    }\r\n\r\n    function symbol() external view override returns (string memory) {\r\n        return _symbol;\r\n    }\r\n}\r\n",
  "sourcePath": "C:\\Users\\rames\\OneDrive\\Desktop\\New folder\\NFT\\Project\\nft-marketplace-starter-kit\\src\\contracts\\ERC721Metadata.sol",
  "compiler": {
    "name": "solc",
    "version": "0.8.13+commit.abaa5c0e.Emscripten.clang"
  },
  "schemaVersion": "3.4.5",
  "updatedAt": "2022-03-28T09:26:51.838Z",
  "devdoc": {
    "kind": "dev",
    "methods": {},
    "version": 1
  },
  "userdoc": {
    "kind": "user",
    "methods": {},
    "version": 1
  }
}