{
  "contractName": "ERC721Connector",
  "abi": [
    {
      "inputs": [
        {
          "internalType": "string",
          "name": "name",
          "type": "string"
        },
        {
          "internalType": "string",
          "name": "symbol",
          "type": "string"
        }
      ],
      "stateMutability": "nonpayable",
      "type": "constructor"
    },
    {
      "anonymous": false,
      "inputs": [
        {
          "indexed": true,
          "internalType": "address",
          "name": "_owner",
          "type": "address"
        },
        {
          "indexed": true,
          "internalType": "address",
          "name": "_approved",
          "type": "address"
        },
        {
          "indexed": true,
          "internalType": "uint256",
          "name": "_tokenId",
          "type": "uint256"
        }
      ],
      "name": "Approval",
      "type": "event"
    },
    {
      "anonymous": false,
      "inputs": [
        {
          "indexed": true,
          "internalType": "address",
          "name": "_from",
          "type": "address"
        },
        {
          "indexed": true,
          "internalType": "address",
          "name": "_to",
          "type": "address"
        },
        {
          "indexed": true,
          "internalType": "uint256",
          "name": "_tokenId",
          "type": "uint256"
        }
      ],
      "name": "Transfer",
      "type": "event"
    },
    {
      "inputs": [
        {
          "internalType": "address",
          "name": "_to",
          "type": "address"
        },
        {
          "internalType": "uint256",
          "name": "tokenId",
          "type": "uint256"
        }
      ],
      "name": "approve",
      "outputs": [],
      "stateMutability": "nonpayable",
      "type": "function"
    },
    {
      "inputs": [
        {
          "internalType": "address",
          "name": "_owner",
          "type": "address"
        }
      ],
      "name": "balanceOf",
      "outputs": [
        {
          "internalType": "uint256",
          "name": "",
          "type": "uint256"
        }
      ],
      "stateMutability": "view",
      "type": "function"
    },
    {
      "inputs": [
        {
          "internalType": "uint256",
          "name": "_tokenId",
          "type": "uint256"
        }
      ],
      "name": "getApproved",
      "outputs": [
        {
          "internalType": "address",
          "name": "",
          "type": "address"
        }
      ],
      "stateMutability": "view",
      "type": "function"
    },
    {
      "inputs": [],
      "name": "name",
      "outputs": [
        {
          "internalType": "string",
          "name": "",
          "type": "string"
        }
      ],
      "stateMutability": "view",
      "type": "function"
    },
    {
      "inputs": [
        {
          "internalType": "uint256",
          "name": "_tokenId",
          "type": "uint256"
        }
      ],
      "name": "ownerOf",
      "outputs": [
        {
          "internalType": "address",
          "name": "",
          "type": "address"
        }
      ],
      "stateMutability": "view",
      "type": "function"
    },
    {
      "inputs": [
        {
          "internalType": "bytes4",
          "name": "interfaceId",
          "type": "bytes4"
        }
      ],
      "name": "supportsInterface",
      "outputs": [
        {
          "internalType": "bool",
          "name": "",
          "type": "bool"
        }
      ],
      "stateMutability": "view",
      "type": "function"
    },
    {
      "inputs": [],
      "name": "symbol",
      "outputs": [
        {
          "internalType": "string",
          "name": "",
          "type": "string"
        }
      ],
      "stateMutability": "view",
      "type": "function"
    },
    {
      "inputs": [
        {
          "internalType": "uint256",
          "name": "_index",
          "type": "uint256"
        }
      ],
      "name": "tokenByIndex",
      "outputs": [
        {
          "internalType": "uint256",
          "name": "",
          "type": "uint256"
        }
      ],
      "stateMutability": "view",
      "type": "function"
    },
    {
      "inputs": [
        {
          "internalType": "address",
          "name": "_owner",
          "type": "address"
        },
        {
          "internalType": "uint256",
          "name": "_index",
          "type": "uint256"
        }
      ],
      "name": "tokenOfOwnerByIndex",
      "outputs": [
        {
          "internalType": "uint256",
          "name": "",
          "type": "uint256"
        }
      ],
      "stateMutability": "view",
      "type": "function"
    },
    {
      "inputs": [],
      "name": "totalSupply",
      "outputs": [
        {
          "internalType": "uint256",
          "name": "",
          "type": "uint256"
        }
      ],
      "stateMutability": "view",
      "type": "function"
    },
    {
      "inputs": [
        {
          "internalType": "address",
          "name": "_from",
          "type": "address"
        },
        {
          "internalType": "address",
          "name": "_to",
          "type": "address"
        },
        {
          "internalType": "uint256",
          "name": "_tokenId",
          "type": "uint256"
        }
      ],
      "name": "transferFrom",
      "outputs": [],
      "stateMutability": "nonpayable",
      "type": "function"
    }
  ],
  "bytecode": "0x60806040523480156200001157600080fd5b5060405162000f1838038062000f188339810160408190526200003491620002cf565b6301ffc9a760e01b60009081526020527f67be87c3ff9960ca1e9cfac5cab2ff4747269cf9ed20c9b7306235ac35a491c5805460ff191660011790558181630362db9b60e51b60009081526020527fcac3c0a077c6518b7f68b64ab78f4ed50fa53c3ff307dccfbeed1c7363dd4f43805460ff191660011790558151620000c39060019060208501906200015c565b508051620000d99060029060208401906200015c565b50506373874fd360e01b6000908152602052507f6d30883896179969bd6b70060212d0be7efebdf17cadb082d12b1cb1c0650816805460ff19166001179055632aa3f47160e01b60009081526020527f8cfeb3eabafb43a76dd2043be76e4193cfb32a4cbc23d57b8efc3ef1de04ead5805460ff19166001179055505062000375565b8280546200016a9062000339565b90600052602060002090601f0160209004810192826200018e5760008555620001d9565b82601f10620001a957805160ff1916838001178555620001d9565b82800160010185558215620001d9579182015b82811115620001d9578251825591602001919060010190620001bc565b50620001e7929150620001eb565b5090565b5b80821115620001e75760008155600101620001ec565b634e487b7160e01b600052604160045260246000fd5b600082601f8301126200022a57600080fd5b81516001600160401b038082111562000247576200024762000202565b604051601f8301601f19908116603f0116810190828211818310171562000272576200027262000202565b816040528381526020925086838588010111156200028f57600080fd5b600091505b83821015620002b3578582018301518183018401529082019062000294565b83821115620002c55760008385830101525b9695505050505050565b60008060408385031215620002e357600080fd5b82516001600160401b0380821115620002fb57600080fd5b620003098683870162000218565b935060208501519150808211156200032057600080fd5b506200032f8582860162000218565b9150509250929050565b600181811c908216806200034e57607f821691505b6020821081036200036f57634e487b7160e01b600052602260045260246000fd5b50919050565b610b9380620003856000396000f3fe608060405234801561001057600080fd5b50600436106100a95760003560e01c806323b872dd1161007157806323b872dd146101575780632f745c591461016a5780634f6ccce71461017d5780636352211e1461019057806370a08231146101a357806395d89b41146101b657600080fd5b806301ffc9a7146100ae57806306fdde03146100f0578063081812fc14610105578063095ea7b31461013057806318160ddd14610145575b600080fd5b6100db6100bc366004610947565b6001600160e01b03191660009081526020819052604090205460ff1690565b60405190151581526020015b60405180910390f35b6100f86101be565b6040516100e79190610978565b6101186101133660046109cd565b610250565b6040516001600160a01b0390911681526020016100e7565b61014361013e366004610a02565b6102d5565b005b6006545b6040519081526020016100e7565b610143610165366004610a2c565b6103f7565b610149610178366004610a02565b61041a565b61014961018b3660046109cd565b6104fb565b61011861019e3660046109cd565b61056e565b6101496101b1366004610a68565b61060d565b6100f8610653565b6060600180546101cd90610a83565b80601f01602080910402602001604051908101604052809291908181526020018280546101f990610a83565b80156102465780601f1061021b57610100808354040283529160200191610246565b820191906000526020600020905b81548152906001019060200180831161022957829003601f168201915b5050505050905090565b6000818152600360205260408120546001600160a01b03166102b95760405162461bcd60e51b815260206004820152601b60248201527f4572726f722d20746f6b656e20646f6573206e6f74206578697374000000000060448201526064015b60405180910390fd5b506000908152600560205260409020546001600160a01b031690565b60006102e08261056e565b9050336001600160a01b0382161461033a5760405162461bcd60e51b815260206004820152601b60248201527f63757272656e742063616c6c6572206973206e6f74206f776e6572000000000060448201526064016102b0565b806001600160a01b0316836001600160a01b03160361039b5760405162461bcd60e51b815260206004820181905260248201527f4572726f722d20417070726f76616c20746f2063757272656e74206f776e657260448201526064016102b0565b60008281526005602052604080822080546001600160a01b0319166001600160a01b0387811691821790925591518593918516917f8c5be1e5ebec7d5bd14f71427d1e84f3dd0314c0f7b2291e5b200ac8c7c3b92591a4505050565b6104013382610662565b61040a57600080fd5b61041583838361071a565b505050565b60006001600160a01b0383166104725760405162461bcd60e51b815260206004820152601d60248201527f4f776e657220616464726573732063616e206e6f74206265207a65726f00000060448201526064016102b0565b61047b8361060d565b82106104be5760405162461bcd60e51b8152602060048201526012602482015271125b99195e081bdd5d081bd988189bdd5b9960721b60448201526064016102b0565b6001600160a01b03831660009081526008602052604090208054839081106104e8576104e8610abd565b9060005260206000200154905092915050565b600061050660065490565b82106105495760405162461bcd60e51b8152602060048201526012602482015271125b99195e081bdd5d081bd988189bdd5b9960721b60448201526064016102b0565b6006828154811061055c5761055c610abd565b90600052602060002001549050919050565b6000818152600360205260408120546001600160a01b03166105d25760405162461bcd60e51b815260206004820152601860248201527f4552433732313a20696e76616c696420746f6b656e204964000000000000000060448201526064016102b0565b6000828152600360205260409020546001600160a01b0316806106075760405162461bcd60e51b81526004016102b090610ad3565b92915050565b60006001600160a01b0382166106355760405162461bcd60e51b81526004016102b090610ad3565b6001600160a01b038216600090815260046020526040902054610607565b6060600280546101cd90610a83565b6000818152600360205260408120546001600160a01b03166106c65760405162461bcd60e51b815260206004820152601b60248201527f4572726f722d20746f6b656e20646f6573206e6f74206578697374000000000060448201526064016102b0565b60006106d18361056e565b905060006106de84610250565b9050816001600160a01b0316856001600160a01b031614806107115750806001600160a01b0316856001600160a01b0316145b95945050505050565b6001600160a01b0382166107845760405162461bcd60e51b815260206004820152602b60248201527f4572726f72202d20455243373231205472616e7366657220746f20746865207a60448201526a65726f206164647265737360a81b60648201526084016102b0565b826001600160a01b03166107978261056e565b6001600160a01b03161461080a5760405162461bcd60e51b815260206004820152603460248201527f547279696e6720746f207472616e73666572206120746f6b656e20746865206160448201527364647265737320646f6573206e6f74206f776e2160601b60648201526084016102b0565b6108156000826102d5565b6001600160a01b0383166000908152600460205260409020610836906108b3565b6001600160a01b0382166000908152600460205260409020610857906108c4565b60008181526003602052604080822080546001600160a01b0319166001600160a01b0386811691821790925591518493918716917fddf252ad1be2c89b69c2b068fc378daa952ba7f163c4a11628f55a4df523b3ef91a4505050565b80546108c09060016108e1565b9055565b60018160000160008282546108d99190610b2e565b909155505050565b6000828211156109335760405162461bcd60e51b815260206004820152601e60248201527f536166654d6174683a205375627472616374696f6e206f766572666c6f77000060448201526064016102b0565b600061093f8385610b46565b949350505050565b60006020828403121561095957600080fd5b81356001600160e01b03198116811461097157600080fd5b9392505050565b600060208083528351808285015260005b818110156109a557858101830151858201604001528201610989565b818111156109b7576000604083870101525b50601f01601f1916929092016040019392505050565b6000602082840312156109df57600080fd5b5035919050565b80356001600160a01b03811681146109fd57600080fd5b919050565b60008060408385031215610a1557600080fd5b610a1e836109e6565b946020939093013593505050565b600080600060608486031215610a4157600080fd5b610a4a846109e6565b9250610a58602085016109e6565b9150604084013590509250925092565b600060208284031215610a7a57600080fd5b610971826109e6565b600181811c90821680610a9757607f821691505b602082108103610ab757634e487b7160e01b600052602260045260246000fd5b50919050565b634e487b7160e01b600052603260045260246000fd5b60208082526025908201527f4552433732313a204f776e65722063616e206e6f74206265207a65726f206164604082015264647265737360d81b606082015260800190565b634e487b7160e01b600052601160045260246000fd5b60008219821115610b4157610b41610b18565b500190565b600082821015610b5857610b58610b18565b50039056fea2646970667358221220862c6702c0b82790a85edf43b840fd7c7873490e6aba4b90fd3ac007dc74593764736f6c634300080d0033",
  "immutableReferences": {},
  "source": "// SPDX-License-Identifier: MIT\r\npragma solidity ^0.8.0;\r\n\r\nimport './ERC721Metadata.sol';\r\nimport './ERC721Enumerable.sol';\r\n\r\ncontract ERC721Connector is ERC721Metadata, ERC721Enumerable {\r\n\r\n    constructor(string memory name, string memory symbol) ERC721Metadata(name, symbol){\r\n\r\n    }\r\n}",
  "sourcePath": "C:\\Users\\rames\\OneDrive\\Desktop\\New folder\\NFT\\Project\\nft-marketplace-starter-kit\\src\\contracts\\ERC721Connector.sol",
  "compiler": {
    "name": "solc",
    "version": "0.8.13+commit.abaa5c0e.Emscripten.clang"
  },
  "schemaVersion": "3.4.5",
  "updatedAt": "2022-05-05T09:40:09.471Z",
  "devdoc": {
    "kind": "dev",
    "methods": {},
    "version": 1
  },
  "userdoc": {
    "kind": "user",
    "methods": {},
    "version": 1
  }
}