{
  "contractName": "ERC721",
  "abi": [
    {
      "inputs": [],
      "stateMutability": "nonpayable",
      "type": "constructor"
    },
    {
      "anonymous": false,
      "inputs": [
        {
          "indexed": true,
          "internalType": "address",
          "name": "_owner",
          "type": "address"
        },
        {
          "indexed": true,
          "internalType": "address",
          "name": "_approved",
          "type": "address"
        },
        {
          "indexed": true,
          "internalType": "uint256",
          "name": "_tokenId",
          "type": "uint256"
        }
      ],
      "name": "Approval",
      "type": "event"
    },
    {
      "anonymous": false,
      "inputs": [
        {
          "indexed": true,
          "internalType": "address",
          "name": "_from",
          "type": "address"
        },
        {
          "indexed": true,
          "internalType": "address",
          "name": "_to",
          "type": "address"
        },
        {
          "indexed": true,
          "internalType": "uint256",
          "name": "_tokenId",
          "type": "uint256"
        }
      ],
      "name": "Transfer",
      "type": "event"
    },
    {
      "inputs": [
        {
          "internalType": "bytes4",
          "name": "interfaceId",
          "type": "bytes4"
        }
      ],
      "name": "supportsInterface",
      "outputs": [
        {
          "internalType": "bool",
          "name": "",
          "type": "bool"
        }
      ],
      "stateMutability": "view",
      "type": "function"
    },
    {
      "inputs": [
        {
          "internalType": "address",
          "name": "_owner",
          "type": "address"
        }
      ],
      "name": "balanceOf",
      "outputs": [
        {
          "internalType": "uint256",
          "name": "",
          "type": "uint256"
        }
      ],
      "stateMutability": "view",
      "type": "function"
    },
    {
      "inputs": [
        {
          "internalType": "uint256",
          "name": "_tokenId",
          "type": "uint256"
        }
      ],
      "name": "ownerOf",
      "outputs": [
        {
          "internalType": "address",
          "name": "",
          "type": "address"
        }
      ],
      "stateMutability": "view",
      "type": "function"
    },
    {
      "inputs": [
        {
          "internalType": "address",
          "name": "_from",
          "type": "address"
        },
        {
          "internalType": "address",
          "name": "_to",
          "type": "address"
        },
        {
          "internalType": "uint256",
          "name": "_tokenId",
          "type": "uint256"
        }
      ],
      "name": "transferFrom",
      "outputs": [],
      "stateMutability": "nonpayable",
      "type": "function"
    },
    {
      "inputs": [
        {
          "internalType": "address",
          "name": "_to",
          "type": "address"
        },
        {
          "internalType": "uint256",
          "name": "tokenId",
          "type": "uint256"
        }
      ],
      "name": "approve",
      "outputs": [],
      "stateMutability": "nonpayable",
      "type": "function"
    },
    {
      "inputs": [
        {
          "internalType": "uint256",
          "name": "_tokenId",
          "type": "uint256"
        }
      ],
      "name": "getApproved",
      "outputs": [
        {
          "internalType": "address",
          "name": "",
          "type": "address"
        }
      ],
      "stateMutability": "view",
      "type": "function"
    }
  ],
  "bytecode": "0x608060405234801561001057600080fd5b506301ffc9a760e01b60009081526020527f67be87c3ff9960ca1e9cfac5cab2ff4747269cf9ed20c9b7306235ac35a491c5805460ff191660011790556373874fd360e01b60009081526020527f6d30883896179969bd6b70060212d0be7efebdf17cadb082d12b1cb1c0650816805460ff1916600117905561086b806100986000396000f3fe608060405234801561001057600080fd5b50600436106100625760003560e01c806301ffc9a714610067578063081812fc146100a9578063095ea7b3146100d457806323b872dd146100e95780636352211e146100fc57806370a082311461010f575b600080fd5b6100946100753660046106c4565b6001600160e01b03191660009081526020819052604090205460ff1690565b60405190151581526020015b60405180910390f35b6100bc6100b73660046106f5565b610130565b6040516001600160a01b0390911681526020016100a0565b6100e76100e236600461072a565b6101b5565b005b6100e76100f7366004610754565b6102d7565b6100bc61010a3660046106f5565b6102fa565b61012261011d366004610790565b610399565b6040519081526020016100a0565b6000818152600160205260408120546001600160a01b03166101995760405162461bcd60e51b815260206004820152601b60248201527f4572726f722d20746f6b656e20646f6573206e6f74206578697374000000000060448201526064015b60405180910390fd5b506000908152600360205260409020546001600160a01b031690565b60006101c0826102fa565b9050336001600160a01b0382161461021a5760405162461bcd60e51b815260206004820152601b60248201527f63757272656e742063616c6c6572206973206e6f74206f776e657200000000006044820152606401610190565b806001600160a01b0316836001600160a01b03160361027b5760405162461bcd60e51b815260206004820181905260248201527f4572726f722d20417070726f76616c20746f2063757272656e74206f776e65726044820152606401610190565b60008281526003602052604080822080546001600160a01b0319166001600160a01b0387811691821790925591518593918516917f8c5be1e5ebec7d5bd14f71427d1e84f3dd0314c0f7b2291e5b200ac8c7c3b92591a4505050565b6102e133826103df565b6102ea57600080fd5b6102f5838383610497565b505050565b6000818152600160205260408120546001600160a01b031661035e5760405162461bcd60e51b815260206004820152601860248201527f4552433732313a20696e76616c696420746f6b656e20496400000000000000006044820152606401610190565b6000828152600160205260409020546001600160a01b0316806103935760405162461bcd60e51b8152600401610190906107ab565b92915050565b60006001600160a01b0382166103c15760405162461bcd60e51b8152600401610190906107ab565b6001600160a01b038216600090815260026020526040902054610393565b6000818152600160205260408120546001600160a01b03166104435760405162461bcd60e51b815260206004820152601b60248201527f4572726f722d20746f6b656e20646f6573206e6f7420657869737400000000006044820152606401610190565b600061044e836102fa565b9050600061045b84610130565b9050816001600160a01b0316856001600160a01b0316148061048e5750806001600160a01b0316856001600160a01b0316145b95945050505050565b6001600160a01b0382166105015760405162461bcd60e51b815260206004820152602b60248201527f4572726f72202d20455243373231205472616e7366657220746f20746865207a60448201526a65726f206164647265737360a81b6064820152608401610190565b826001600160a01b0316610514826102fa565b6001600160a01b0316146105875760405162461bcd60e51b815260206004820152603460248201527f547279696e6720746f207472616e73666572206120746f6b656e20746865206160448201527364647265737320646f6573206e6f74206f776e2160601b6064820152608401610190565b6105926000826101b5565b6001600160a01b03831660009081526002602052604090206105b390610630565b6001600160a01b03821660009081526002602052604090206105d490610641565b60008181526001602052604080822080546001600160a01b0319166001600160a01b0386811691821790925591518493918716917fddf252ad1be2c89b69c2b068fc378daa952ba7f163c4a11628f55a4df523b3ef91a4505050565b805461063d90600161065e565b9055565b60018160000160008282546106569190610806565b909155505050565b6000828211156106b05760405162461bcd60e51b815260206004820152601e60248201527f536166654d6174683a205375627472616374696f6e206f766572666c6f7700006044820152606401610190565b60006106bc838561081e565b949350505050565b6000602082840312156106d657600080fd5b81356001600160e01b0319811681146106ee57600080fd5b9392505050565b60006020828403121561070757600080fd5b5035919050565b80356001600160a01b038116811461072557600080fd5b919050565b6000806040838503121561073d57600080fd5b6107468361070e565b946020939093013593505050565b60008060006060848603121561076957600080fd5b6107728461070e565b92506107806020850161070e565b9150604084013590509250925092565b6000602082840312156107a257600080fd5b6106ee8261070e565b60208082526025908201527f4552433732313a204f776e65722063616e206e6f74206265207a65726f206164604082015264647265737360d81b606082015260800190565b634e487b7160e01b600052601160045260246000fd5b60008219821115610819576108196107f0565b500190565b600082821015610830576108306107f0565b50039056fea2646970667358221220c660136ac99742ec4a4356a870261263fd7ff553f20769f8748c1955f215ec6d64736f6c634300080d0033",
  "immutableReferences": {},
  "source": "// SPDX-License-Identifier: MIT\r\npragma solidity ^0.8.0;\r\n\r\nimport \"./ERC165.sol\";\r\nimport \"./interfaces/IERC721.sol\";\r\nimport \"./libraries/Counters.sol\";\r\n\r\ncontract ERC721 is ERC165, IERC721 {\r\n    using Counters for Counters.Counter;\r\n    using SafeMath for uint256;\r\n\r\n    mapping(uint256 => address) private _tokenOwner; //mapping from token id to token owner\r\n    mapping(address => Counters.Counter) private _ownedTokensCount; // mapping from token owner to no of tokens\r\n\r\n    // Mapping from token id to approved addresses\r\n    mapping(uint256 => address) private _tokenApprovals;\r\n\r\n    constructor() {\r\n        _registerInterface(\r\n            bytes4(\r\n                keccak256(\"balanceOf(byte4)\") ^\r\n                    keccak256(\"ownerOf(bytes4)\") ^\r\n                    keccak256(\"transferFrom(bytes4)\") ^\r\n                    keccak256(\"approve(bytes4)\") ^\r\n                    keccak256(\"getApproved(bytyes4)\")\r\n            )\r\n        );\r\n    }\r\n\r\n    function _tokenExists(uint256 tokenId) internal view returns (bool) {\r\n        return _tokenOwner[tokenId] != address(0);\r\n    }\r\n\r\n    function balanceOf(address _owner) public view override returns (uint256) {\r\n        require(_owner != address(0), \"ERC721: Owner can not be zero address\");\r\n\r\n        return _ownedTokensCount[_owner].current();\r\n    }\r\n\r\n    function ownerOf(uint256 _tokenId) public view override returns (address) {\r\n        require(_tokenExists(_tokenId), \"ERC721: invalid token Id\");\r\n\r\n        address owner = _tokenOwner[_tokenId];\r\n        require(owner != address(0), \"ERC721: Owner can not be zero address\");\r\n        return owner;\r\n    }\r\n\r\n    function _mint(address to, uint256 tokenId) internal virtual {\r\n        require(to != address(0), \"ERC721: minting to zero address\");\r\n        require(\r\n            _tokenOwner[tokenId] == address(0),\r\n            \"ERC721: Token already exists/minted\"\r\n        );\r\n\r\n        _tokenOwner[tokenId] = to;\r\n        _ownedTokensCount[to].increment();\r\n\r\n        emit Transfer(address(0), to, tokenId);\r\n    }\r\n\r\n    function _transferFrom(\r\n        address _from,\r\n        address _to,\r\n        uint256 _tokenId\r\n    ) internal {\r\n        require(\r\n            _to != address(0),\r\n            \"Error - ERC721 Transfer to the zero address\"\r\n        );\r\n        require(\r\n            ownerOf(_tokenId) == _from,\r\n            \"Trying to transfer a token the address does not own!\"\r\n        );\r\n\r\n        approve(address(0), _tokenId); // changing approval of the token to zero address before trnasfer\r\n        _ownedTokensCount[_from].decrement();\r\n        _ownedTokensCount[_to].increment();\r\n\r\n        _tokenOwner[_tokenId] = _to;\r\n\r\n        emit Transfer(_from, _to, _tokenId);\r\n    }\r\n\r\n    function transferFrom(\r\n        address _from,\r\n        address _to,\r\n        uint256 _tokenId\r\n    ) public override {\r\n        require(isApprovedOrOwner(msg.sender, _tokenId));\r\n        _transferFrom(_from, _to, _tokenId);\r\n    }\r\n\r\n    function approve(address _to, uint256 tokenId) public override {\r\n        address owner = ownerOf(tokenId);\r\n\r\n        require(msg.sender == owner, \"current caller is not owner\");\r\n        require(_to != owner, \"Error- Approval to current owner\");\r\n\r\n        _tokenApprovals[tokenId] = _to;\r\n\r\n        emit Approval(owner, _to, tokenId);\r\n    }\r\n\r\n    function getApproved(uint256 _tokenId)\r\n        public\r\n        view\r\n        override\r\n        returns (address)\r\n    {\r\n        require(_tokenExists(_tokenId), \"Error- token does not exist\");\r\n\r\n        return _tokenApprovals[_tokenId];\r\n    }\r\n\r\n    function isApprovedOrOwner(address spender, uint256 _tokenId)\r\n        internal\r\n        view\r\n        returns (bool)\r\n    {\r\n        require(_tokenExists(_tokenId), \"Error- token does not exist\");\r\n\r\n        address owner = ownerOf(_tokenId);\r\n        address approved = getApproved(_tokenId);\r\n\r\n        return (spender == owner || spender == approved);\r\n    }\r\n}\r\n",
  "sourcePath": "C:\\Users\\rames\\OneDrive\\Desktop\\New folder\\NFT\\Project\\nft-marketplace-starter-kit\\src\\contracts\\ERC721.sol",
  "compiler": {
    "name": "solc",
    "version": "0.8.13+commit.abaa5c0e.Emscripten.clang"
  },
  "schemaVersion": "3.4.5",
  "updatedAt": "2022-03-28T09:26:51.801Z",
  "devdoc": {
    "kind": "dev",
    "methods": {},
    "version": 1
  },
  "userdoc": {
    "kind": "user",
    "methods": {},
    "version": 1
  }
}