{
  "contractName": "KryptoBird",
  "abi": [
    {
      "inputs": [],
      "stateMutability": "nonpayable",
      "type": "constructor"
    },
    {
      "anonymous": false,
      "inputs": [
        {
          "indexed": true,
          "internalType": "address",
          "name": "_owner",
          "type": "address"
        },
        {
          "indexed": true,
          "internalType": "address",
          "name": "_approved",
          "type": "address"
        },
        {
          "indexed": true,
          "internalType": "uint256",
          "name": "_tokenId",
          "type": "uint256"
        }
      ],
      "name": "Approval",
      "type": "event"
    },
    {
      "anonymous": false,
      "inputs": [
        {
          "indexed": true,
          "internalType": "address",
          "name": "_from",
          "type": "address"
        },
        {
          "indexed": true,
          "internalType": "address",
          "name": "_to",
          "type": "address"
        },
        {
          "indexed": true,
          "internalType": "uint256",
          "name": "_tokenId",
          "type": "uint256"
        }
      ],
      "name": "Transfer",
      "type": "event"
    },
    {
      "inputs": [
        {
          "internalType": "address",
          "name": "_to",
          "type": "address"
        },
        {
          "internalType": "uint256",
          "name": "tokenId",
          "type": "uint256"
        }
      ],
      "name": "approve",
      "outputs": [],
      "stateMutability": "nonpayable",
      "type": "function"
    },
    {
      "inputs": [
        {
          "internalType": "address",
          "name": "_owner",
          "type": "address"
        }
      ],
      "name": "balanceOf",
      "outputs": [
        {
          "internalType": "uint256",
          "name": "",
          "type": "uint256"
        }
      ],
      "stateMutability": "view",
      "type": "function",
      "constant": true
    },
    {
      "inputs": [
        {
          "internalType": "uint256",
          "name": "_tokenId",
          "type": "uint256"
        }
      ],
      "name": "getApproved",
      "outputs": [
        {
          "internalType": "address",
          "name": "",
          "type": "address"
        }
      ],
      "stateMutability": "view",
      "type": "function",
      "constant": true
    },
    {
      "inputs": [
        {
          "internalType": "uint256",
          "name": "",
          "type": "uint256"
        }
      ],
      "name": "kryptoBirdz",
      "outputs": [
        {
          "internalType": "string",
          "name": "",
          "type": "string"
        }
      ],
      "stateMutability": "view",
      "type": "function",
      "constant": true
    },
    {
      "inputs": [],
      "name": "name",
      "outputs": [
        {
          "internalType": "string",
          "name": "",
          "type": "string"
        }
      ],
      "stateMutability": "view",
      "type": "function",
      "constant": true
    },
    {
      "inputs": [
        {
          "internalType": "uint256",
          "name": "_tokenId",
          "type": "uint256"
        }
      ],
      "name": "ownerOf",
      "outputs": [
        {
          "internalType": "address",
          "name": "",
          "type": "address"
        }
      ],
      "stateMutability": "view",
      "type": "function",
      "constant": true
    },
    {
      "inputs": [
        {
          "internalType": "bytes4",
          "name": "interfaceId",
          "type": "bytes4"
        }
      ],
      "name": "supportsInterface",
      "outputs": [
        {
          "internalType": "bool",
          "name": "",
          "type": "bool"
        }
      ],
      "stateMutability": "view",
      "type": "function",
      "constant": true
    },
    {
      "inputs": [],
      "name": "symbol",
      "outputs": [
        {
          "internalType": "string",
          "name": "",
          "type": "string"
        }
      ],
      "stateMutability": "view",
      "type": "function",
      "constant": true
    },
    {
      "inputs": [
        {
          "internalType": "uint256",
          "name": "_index",
          "type": "uint256"
        }
      ],
      "name": "tokenByIndex",
      "outputs": [
        {
          "internalType": "uint256",
          "name": "",
          "type": "uint256"
        }
      ],
      "stateMutability": "view",
      "type": "function",
      "constant": true
    },
    {
      "inputs": [
        {
          "internalType": "address",
          "name": "_owner",
          "type": "address"
        },
        {
          "internalType": "uint256",
          "name": "_index",
          "type": "uint256"
        }
      ],
      "name": "tokenOfOwnerByIndex",
      "outputs": [
        {
          "internalType": "uint256",
          "name": "",
          "type": "uint256"
        }
      ],
      "stateMutability": "view",
      "type": "function",
      "constant": true
    },
    {
      "inputs": [],
      "name": "totalSupply",
      "outputs": [
        {
          "internalType": "uint256",
          "name": "",
          "type": "uint256"
        }
      ],
      "stateMutability": "view",
      "type": "function",
      "constant": true
    },
    {
      "inputs": [
        {
          "internalType": "address",
          "name": "_from",
          "type": "address"
        },
        {
          "internalType": "address",
          "name": "_to",
          "type": "address"
        },
        {
          "internalType": "uint256",
          "name": "_tokenId",
          "type": "uint256"
        }
      ],
      "name": "transferFrom",
      "outputs": [],
      "stateMutability": "nonpayable",
      "type": "function"
    },
    {
      "inputs": [
        {
          "internalType": "string",
          "name": "_kryptoBird",
          "type": "string"
        }
      ],
      "name": "mint",
      "outputs": [],
      "stateMutability": "nonpayable",
      "type": "function"
    },
    {
      "inputs": [],
      "name": "getKryptoBirdz",
      "outputs": [
        {
          "internalType": "string[]",
          "name": "",
          "type": "string[]"
        }
      ],
      "stateMutability": "view",
      "type": "function",
      "constant": true
    }
  ],
  "bytecode": "0x60806040523480156200001157600080fd5b506040518060400160405280600b81526020016a25b93cb83a37b134b9323d60a91b8152506040518060400160405280600681526020016525a124a9222d60d11b8152508181620000887f01ffc9a7a5cef8baa21ed3c5c0d7e23accb804b619e9333b597f47a0d84076e26200017260201b60201c565b630362db9b60e51b60009081526020527fcac3c0a077c6518b7f68b64ab78f4ed50fa53c3ff307dccfbeed1c7363dd4f43805460ff191660011790558151620000d990600190602085019062000197565b508051620000ef90600290602084019062000197565b50506373874fd360e01b6000908152602052507f6d30883896179969bd6b70060212d0be7efebdf17cadb082d12b1cb1c0650816805460ff19166001179055632aa3f47160e01b60009081526020527f8cfeb3eabafb43a76dd2043be76e4193cfb32a4cbc23d57b8efc3ef1de04ead5805460ff19166001179055505062000279565b6001600160e01b0319166000908152602081905260409020805460ff19166001179055565b828054620001a5906200023d565b90600052602060002090601f016020900481019282620001c9576000855562000214565b82601f10620001e457805160ff191683800117855562000214565b8280016001018555821562000214579182015b8281111562000214578251825591602001919060010190620001f7565b506200022292915062000226565b5090565b5b8082111562000222576000815560010162000227565b600181811c908216806200025257607f821691505b6020821081036200027357634e487b7160e01b600052602260045260246000fd5b50919050565b61127280620002896000396000f3fe608060405234801561001057600080fd5b50600436106100ea5760003560e01c80634e4e50611161008c57806370a082311161006657806370a08231146101f957806393ab6e561461020c57806395d89b411461021f578063d85d3d271461022757600080fd5b80634e4e5061146101be5780634f6ccce7146101d35780636352211e146101e657600080fd5b8063095ea7b3116100c8578063095ea7b31461017157806318160ddd1461018657806323b872dd146101985780632f745c59146101ab57600080fd5b806301ffc9a7146100ef57806306fdde0314610131578063081812fc14610146575b600080fd5b61011c6100fd366004610ec7565b6001600160e01b03191660009081526020819052604090205460ff1690565b60405190151581526020015b60405180910390f35b61013961023a565b6040516101289190610f54565b610159610154366004610f67565b6102cc565b6040516001600160a01b039091168152602001610128565b61018461017f366004610f9c565b610351565b005b6006545b604051908152602001610128565b6101846101a6366004610fc6565b610473565b61018a6101b9366004610f9c565b610496565b6101c6610577565b6040516101289190611002565b61018a6101e1366004610f67565b610650565b6101596101f4366004610f67565b6106c3565b61018a610207366004611064565b610762565b61013961021a366004610f67565b6107a8565b610139610854565b610184610235366004611095565b610863565b60606001805461024990611146565b80601f016020809104026020016040519081016040528092919081815260200182805461027590611146565b80156102c25780601f10610297576101008083540402835291602001916102c2565b820191906000526020600020905b8154815290600101906020018083116102a557829003601f168201915b5050505050905090565b6000818152600360205260408120546001600160a01b03166103355760405162461bcd60e51b815260206004820152601b60248201527f4572726f722d20746f6b656e20646f6573206e6f74206578697374000000000060448201526064015b60405180910390fd5b506000908152600560205260409020546001600160a01b031690565b600061035c826106c3565b9050336001600160a01b038216146103b65760405162461bcd60e51b815260206004820152601b60248201527f63757272656e742063616c6c6572206973206e6f74206f776e65720000000000604482015260640161032c565b806001600160a01b0316836001600160a01b0316036104175760405162461bcd60e51b815260206004820181905260248201527f4572726f722d20417070726f76616c20746f2063757272656e74206f776e6572604482015260640161032c565b60008281526005602052604080822080546001600160a01b0319166001600160a01b0387811691821790925591518593918516917f8c5be1e5ebec7d5bd14f71427d1e84f3dd0314c0f7b2291e5b200ac8c7c3b92591a4505050565b61047d3382610976565b61048657600080fd5b610491838383610a2e565b505050565b60006001600160a01b0383166104ee5760405162461bcd60e51b815260206004820152601d60248201527f4f776e657220616464726573732063616e206e6f74206265207a65726f000000604482015260640161032c565b6104f783610762565b821061053a5760405162461bcd60e51b8152602060048201526012602482015271125b99195e081bdd5d081bd988189bdd5b9960721b604482015260640161032c565b6001600160a01b038316600090815260086020526040902080548390811061056457610564611180565b9060005260206000200154905092915050565b6060600a805480602002602001604051908101604052809291908181526020016000905b828210156106475783829060005260206000200180546105ba90611146565b80601f01602080910402602001604051908101604052809291908181526020018280546105e690611146565b80156106335780601f1061060857610100808354040283529160200191610633565b820191906000526020600020905b81548152906001019060200180831161061657829003601f168201915b50505050508152602001906001019061059b565b50505050905090565b600061065b60065490565b821061069e5760405162461bcd60e51b8152602060048201526012602482015271125b99195e081bdd5d081bd988189bdd5b9960721b604482015260640161032c565b600682815481106106b1576106b1611180565b90600052602060002001549050919050565b6000818152600360205260408120546001600160a01b03166107275760405162461bcd60e51b815260206004820152601860248201527f4552433732313a20696e76616c696420746f6b656e2049640000000000000000604482015260640161032c565b6000828152600360205260409020546001600160a01b03168061075c5760405162461bcd60e51b815260040161032c90611196565b92915050565b60006001600160a01b03821661078a5760405162461bcd60e51b815260040161032c90611196565b6001600160a01b03821660009081526004602052604090205461075c565b600a81815481106107b857600080fd5b9060005260206000200160009150905080546107d390611146565b80601f01602080910402602001604051908101604052809291908181526020018280546107ff90611146565b801561084c5780601f106108215761010080835404028352916020019161084c565b820191906000526020600020905b81548152906001019060200180831161082f57829003601f168201915b505050505081565b60606002805461024990611146565b600b8160405161087391906111db565b9081526040519081900360200190205460ff16156108de5760405162461bcd60e51b815260206004820152602260248201527f4572726f72202d206b727970746f206269726420616c72656164792065786973604482015261747360f01b606482015260840161032c565b600a80546001810182556000919091528151610921917fc65a7bb8d6351c1cf70c95a316cc6a92839c986682d98bc35f958f4883f9d2a801906020840190610e2e565b50600a546000906109349060019061120d565b90506109403382610bc7565b6001600b8360405161095291906111db565b908152604051908190036020019020805491151560ff199092169190911790555050565b6000818152600360205260408120546001600160a01b03166109da5760405162461bcd60e51b815260206004820152601b60248201527f4572726f722d20746f6b656e20646f6573206e6f742065786973740000000000604482015260640161032c565b60006109e5836106c3565b905060006109f2846102cc565b9050816001600160a01b0316856001600160a01b03161480610a255750806001600160a01b0316856001600160a01b0316145b95945050505050565b6001600160a01b038216610a985760405162461bcd60e51b815260206004820152602b60248201527f4572726f72202d20455243373231205472616e7366657220746f20746865207a60448201526a65726f206164647265737360a81b606482015260840161032c565b826001600160a01b0316610aab826106c3565b6001600160a01b031614610b1e5760405162461bcd60e51b815260206004820152603460248201527f547279696e6720746f207472616e73666572206120746f6b656e20746865206160448201527364647265737320646f6573206e6f74206f776e2160601b606482015260840161032c565b610b29600082610351565b6001600160a01b0383166000908152600460205260409020610b4a90610c58565b6001600160a01b0382166000908152600460205260409020610b6b90610c69565b60008181526003602052604080822080546001600160a01b0319166001600160a01b0386811691821790925591518493918716917fddf252ad1be2c89b69c2b068fc378daa952ba7f163c4a11628f55a4df523b3ef91a4505050565b610bd18282610c86565b610c1981600680546000838152600760205260408120829055600182018355919091527ff652222313e28459528d920b65115c16c04f3efc82aaedc97be59f3f377c0d3f0155565b6001600160a01b039190911660009081526008602081815260408084208054868652600984529185208290559282526001810183559183529091200155565b8054610c65906001610dc8565b9055565b6001816000016000828254610c7e9190611224565b909155505050565b6001600160a01b038216610cdc5760405162461bcd60e51b815260206004820152601f60248201527f4552433732313a206d696e74696e6720746f207a65726f206164647265737300604482015260640161032c565b6000818152600360205260409020546001600160a01b031615610d4d5760405162461bcd60e51b815260206004820152602360248201527f4552433732313a20546f6b656e20616c7265616479206578697374732f6d696e6044820152621d195960ea1b606482015260840161032c565b600081815260036020908152604080832080546001600160a01b0319166001600160a01b038716908117909155835260049091529020610d8c90610c69565b60405181906001600160a01b038416906000907fddf252ad1be2c89b69c2b068fc378daa952ba7f163c4a11628f55a4df523b3ef908290a45050565b600082821115610e1a5760405162461bcd60e51b815260206004820152601e60248201527f536166654d6174683a205375627472616374696f6e206f766572666c6f770000604482015260640161032c565b6000610e26838561120d565b949350505050565b828054610e3a90611146565b90600052602060002090601f016020900481019282610e5c5760008555610ea2565b82601f10610e7557805160ff1916838001178555610ea2565b82800160010185558215610ea2579182015b82811115610ea2578251825591602001919060010190610e87565b50610eae929150610eb2565b5090565b5b80821115610eae5760008155600101610eb3565b600060208284031215610ed957600080fd5b81356001600160e01b031981168114610ef157600080fd5b9392505050565b60005b83811015610f13578181015183820152602001610efb565b83811115610f22576000848401525b50505050565b60008151808452610f40816020860160208601610ef8565b601f01601f19169290920160200192915050565b602081526000610ef16020830184610f28565b600060208284031215610f7957600080fd5b5035919050565b80356001600160a01b0381168114610f9757600080fd5b919050565b60008060408385031215610faf57600080fd5b610fb883610f80565b946020939093013593505050565b600080600060608486031215610fdb57600080fd5b610fe484610f80565b9250610ff260208501610f80565b9150604084013590509250925092565b6000602080830181845280855180835260408601915060408160051b870101925083870160005b8281101561105757603f19888603018452611045858351610f28565b94509285019290850190600101611029565b5092979650505050505050565b60006020828403121561107657600080fd5b610ef182610f80565b634e487b7160e01b600052604160045260246000fd5b6000602082840312156110a757600080fd5b813567ffffffffffffffff808211156110bf57600080fd5b818401915084601f8301126110d357600080fd5b8135818111156110e5576110e561107f565b604051601f8201601f19908116603f0116810190838211818310171561110d5761110d61107f565b8160405282815287602084870101111561112657600080fd5b826020860160208301376000928101602001929092525095945050505050565b600181811c9082168061115a57607f821691505b60208210810361117a57634e487b7160e01b600052602260045260246000fd5b50919050565b634e487b7160e01b600052603260045260246000fd5b60208082526025908201527f4552433732313a204f776e65722063616e206e6f74206265207a65726f206164604082015264647265737360d81b606082015260800190565b600082516111ed818460208701610ef8565b9190910192915050565b634e487b7160e01b600052601160045260246000fd5b60008282101561121f5761121f6111f7565b500390565b60008219821115611237576112376111f7565b50019056fea26469706673582212202ed2e9a260ef9a0a0557bb75581efc5831df6d2bb6688185eb2477eff9ae000d64736f6c634300080d0033",
  "immutableReferences": {},
  "source": "// SPDX-License-Identifier: MIT\r\npragma solidity ^0.8.0;\r\n\r\nimport './ERC721Connector.sol';\r\n\r\ncontract KryptoBird is ERC721Connector{\r\n\r\n    string[] public kryptoBirdz;\r\n\r\n    mapping(string => bool) _kryptoBirdExists;\r\n\r\n    function mint(string memory _kryptoBird) public{\r\n        require(!_kryptoBirdExists[_kryptoBird], 'Error - krypto bird already exists');\r\n\r\n        kryptoBirdz.push(_kryptoBird);\r\n\r\n        uint _id = kryptoBirdz.length-1;\r\n\r\n        _mint(msg.sender, _id);\r\n        _kryptoBirdExists[_kryptoBird] = true;\r\n    }\r\n\r\n    constructor() ERC721Connector(\"Kryptobirdz\",\"KBIRDZ\"){\r\n        // name = \"Kryptobirdz\";\r\n        // symbol = \"KBIRDZ\";\r\n    }\r\n\r\n    function getKryptoBirdz() public view returns(string[] memory){\r\n        return kryptoBirdz;\r\n    }\r\n}\r\n",
  "sourcePath": "C:\\Users\\rames\\OneDrive\\Desktop\\New folder\\NFT\\Project\\nft-marketplace-starter-kit\\src\\contracts\\KryptoBirdz.sol",
  "compiler": {
    "name": "solc",
    "version": "0.8.13+commit.abaa5c0e.Emscripten.clang"
  },
  "schemaVersion": "3.4.5",
  "updatedAt": "2022-03-28T09:27:05.720Z",
  "networkType": "ethereum",
  "devdoc": {
    "kind": "dev",
    "methods": {},
    "version": 1
  },
  "userdoc": {
    "kind": "user",
    "methods": {},
    "version": 1
  }
}